{
  "contractName": "Auction",
  "abi": [
    {
      "inputs": [],
      "stateMutability": "nonpayable",
      "type": "constructor"
    },
    {
      "anonymous": false,
      "inputs": [
        {
          "indexed": true,
          "internalType": "address",
          "name": "bidder",
          "type": "address"
        },
        {
          "indexed": false,
          "internalType": "uint256",
          "name": "amount",
          "type": "uint256"
        }
      ],
      "name": "AuctionClosed",
      "type": "event"
    },
    {
      "anonymous": false,
      "inputs": [
        {
          "indexed": true,
          "internalType": "address",
          "name": "bidder",
          "type": "address"
        },
        {
          "indexed": false,
          "internalType": "uint256",
          "name": "amount",
          "type": "uint256"
        }
      ],
      "name": "BidPlaced",
      "type": "event"
    },
    {
      "inputs": [],
      "name": "auctioneer",
      "outputs": [
        {
          "internalType": "address",
          "name": "",
          "type": "address"
        }
      ],
      "stateMutability": "view",
      "type": "function",
      "constant": true
    },
    {
      "inputs": [],
      "name": "highestBid",
      "outputs": [
        {
          "internalType": "uint256",
          "name": "",
          "type": "uint256"
        }
      ],
      "stateMutability": "view",
      "type": "function",
      "constant": true
    },
    {
      "inputs": [],
      "name": "highestBidder",
      "outputs": [
        {
          "internalType": "address",
          "name": "",
          "type": "address"
        }
      ],
      "stateMutability": "view",
      "type": "function",
      "constant": true
    },
    {
      "inputs": [],
      "name": "placeBid",
      "outputs": [],
      "stateMutability": "payable",
      "type": "function",
      "payable": true
    },
    {
      "inputs": [],
      "name": "finalizeAuction",
      "outputs": [],
      "stateMutability": "nonpayable",
      "type": "function"
    }
  ],
  "bytecode": "0x608060405234801561001057600080fd5b50336000806101000a81548173ffffffffffffffffffffffffffffffffffffffff021916908373ffffffffffffffffffffffffffffffffffffffff160217905550610742806100606000396000f3fe60806040526004361061004a5760003560e01c80635ec2c7bf1461004f57806391f901571461007a578063d57bde79146100a5578063ecfc7ecc146100d0578063f77282ab146100da575b600080fd5b34801561005b57600080fd5b506100646100f1565b604051610071919061051c565b60405180910390f35b34801561008657600080fd5b5061008f610115565b60405161009c919061051c565b60405180910390f35b3480156100b157600080fd5b506100ba61013b565b6040516100c79190610550565b60405180910390f35b6100d8610141565b005b3480156100e657600080fd5b506100ef6102df565b005b60008054906101000a900473ffffffffffffffffffffffffffffffffffffffff1681565b600160009054906101000a900473ffffffffffffffffffffffffffffffffffffffff1681565b60025481565b6002543411610185576040517f08c379a000000000000000000000000000000000000000000000000000000000815260040161017c906105ee565b60405180910390fd5b600073ffffffffffffffffffffffffffffffffffffffff16600160009054906101000a900473ffffffffffffffffffffffffffffffffffffffff1673ffffffffffffffffffffffffffffffffffffffff161461024757600160009054906101000a900473ffffffffffffffffffffffffffffffffffffffff1673ffffffffffffffffffffffffffffffffffffffff166108fc6002549081150290604051600060405180830381858888f19350505050158015610245573d6000803e3d6000fd5b505b33600160006101000a81548173ffffffffffffffffffffffffffffffffffffffff021916908373ffffffffffffffffffffffffffffffffffffffff160217905550346002819055503373ffffffffffffffffffffffffffffffffffffffff167f3fabff0a9c3ecd6814702e247fa9733e5d0aa69e3a38590f92cb18f623a2254d346040516102d59190610550565b60405180910390a2565b60008054906101000a900473ffffffffffffffffffffffffffffffffffffffff1673ffffffffffffffffffffffffffffffffffffffff163373ffffffffffffffffffffffffffffffffffffffff161461036d576040517f08c379a000000000000000000000000000000000000000000000000000000000815260040161036490610680565b60405180910390fd5b600073ffffffffffffffffffffffffffffffffffffffff16600160009054906101000a900473ffffffffffffffffffffffffffffffffffffffff1673ffffffffffffffffffffffffffffffffffffffff16036103fe576040517f08c379a00000000000000000000000000000000000000000000000000000000081526004016103f5906106ec565b60405180910390fd5b60008054906101000a900473ffffffffffffffffffffffffffffffffffffffff1673ffffffffffffffffffffffffffffffffffffffff166108fc6002549081150290604051600060405180830381858888f19350505050158015610466573d6000803e3d6000fd5b50600160009054906101000a900473ffffffffffffffffffffffffffffffffffffffff1673ffffffffffffffffffffffffffffffffffffffff167f1d78ca6377547e2f5434a04066a4dcac7670fd77e146b686b06bf8fbc06fb4356002546040516104d19190610550565b60405180910390a2565b600073ffffffffffffffffffffffffffffffffffffffff82169050919050565b6000610506826104db565b9050919050565b610516816104fb565b82525050565b6000602082019050610531600083018461050d565b92915050565b6000819050919050565b61054a81610537565b82525050565b60006020820190506105656000830184610541565b92915050565b600082825260208201905092915050565b7f53746174796d6173207475726920627574692064696465736e6973206e65692060008201527f7072616569746173210000000000000000000000000000000000000000000000602082015250565b60006105d860298361056b565b91506105e38261057c565b604082019050919050565b60006020820190508181036000830152610607816105cb565b9050919050565b7f54696b2061756b63696f6e6f206b7572656a61732067616c692069736b76696560008201527f737469207369612066756e6b63696a6121000000000000000000000000000000602082015250565b600061066a60318361056b565b91506106758261060e565b604082019050919050565b600060208201905081810360008301526106998161065d565b9050919050565b7f41756b63696f6e65206e69656b6173206e65737564616c797661766f00000000600082015250565b60006106d6601c8361056b565b91506106e1826106a0565b602082019050919050565b60006020820190508181036000830152610705816106c9565b905091905056fea26469706673582212207ca07c44934659ba627baeff2b1887a197df6bbee9359c39e5b5f566d43c369c64736f6c63430008130033",
  "immutableReferences": {},
  "source": "// SPDX-License-Identifier: MIT\npragma solidity 0.8.19;\n\ncontract Auction {\n    address public auctioneer;\n    address public highestBidder;\n    uint public highestBid;\n\n    event BidPlaced(address indexed bidder, uint amount);\n    \n    event AuctionClosed(address indexed bidder, uint amount);\n\n    modifier onlyAuctioneer() {\n        require(msg.sender == auctioneer, \"Tik aukciono kurejas gali iskviesti sia funkcija!\");\n        _;\n    }\n    modifier mustHigher(){\n        require(msg.value > highestBid, \"Statymas turi buti didesnis nei praeitas!\");\n        _;\n    }\n\n    constructor() {\n        auctioneer = msg.sender;\n    }\n\n    function placeBid() external payable mustHigher {\n\n        if (highestBidder != address(0)) {\n            payable(highestBidder).transfer(highestBid);\n        }\n\n        highestBidder = msg.sender;\n        highestBid = msg.value;\n\n        emit BidPlaced(msg.sender, msg.value);\n    }\n\n    \n    function finalizeAuction() external onlyAuctioneer {\n        require(highestBidder != address(0), \"Aukcione niekas nesudalyvavo\");\n        payable(auctioneer).transfer(highestBid);\n        emit AuctionClosed(highestBidder, highestBid);\n    }\n}\n",
  "sourcePath": "/Users/dariu/Programavimas/Blockchain/my-contract/contracts/Aukcionas.sol",
  "compiler": {
    "name": "solc",
    "version": "0.8.19+commit.7dd6d404.Emscripten.clang"
  },
  "schemaVersion": "3.4.16",
  "updatedAt": "2023-12-20T22:55:58.997Z",
  "networkType": "ethereum",
  "devdoc": {
    "kind": "dev",
    "methods": {},
    "version": 1
  },
  "userdoc": {
    "kind": "user",
    "methods": {},
    "version": 1
  }
}