{
  "contractName": "Counter",
  "abi": [
    {
      "inputs": [],
      "name": "count",
      "outputs": [
        {
          "internalType": "uint256",
          "name": "",
          "type": "uint256"
        }
      ],
      "stateMutability": "view",
      "type": "function"
    },
    {
      "inputs": [],
      "name": "increment",
      "outputs": [],
      "stateMutability": "nonpayable",
      "type": "function"
    },
    {
      "inputs": [],
      "name": "getCount",
      "outputs": [
        {
          "internalType": "uint256",
          "name": "",
          "type": "uint256"
        }
      ],
      "stateMutability": "view",
      "type": "function"
    }
  ],
  "bytecode": "0x60806040525f8055348015610012575f80fd5b50610177806100205f395ff3fe608060405234801561000f575f80fd5b506004361061003f575f3560e01c806306661abd14610043578063a87d942c14610061578063d09de08a1461007f575b5f80fd5b61004b610089565b60405161005891906100c8565b60405180910390f35b61006961008e565b60405161007691906100c8565b60405180910390f35b610087610096565b005b5f5481565b5f8054905090565b60015f808282546100a7919061010e565b92505081905550565b5f819050919050565b6100c2816100b0565b82525050565b5f6020820190506100db5f8301846100b9565b92915050565b7f4e487b71000000000000000000000000000000000000000000000000000000005f52601160045260245ffd5b5f610118826100b0565b9150610123836100b0565b925082820190508082111561013b5761013a6100e1565b5b9291505056fea26469706673582212206c6c9bcb75eae8a524029b221d1eaed09264af72f59be8ba1d25d527d792a14864736f6c63430008150033",
  "immutableReferences": {},
  "source": "//// SPDX-License-Identifier: MIT\n//pragma solidity ^0.8.0;\n//\n//contract Auction {\n//    address public auctioneer;\n//    address public highestBidder;\n//    uint public highestBid;\n//\n//    event BidPlaced(address indexed bidder, uint amount);\n//\n//    //modifier onlyAuctioneer() {\n//    //  require(msg.sender == auctioneer, \"Tik aukciono kurejas gali iskviesti sia funkcija!\");\n//    //  _;\n//    //}\n//\n//    constructor() {\n//        auctioneer = msg.sender;\n//    }\n//\n//    function placeBid() external payable {\n//        require(msg.value > highestBid, \"Siulymas turi buti didesnis nei praeitas\");\n//\n//        if (highestBidder != address(0)) {\n//            // grazina pinigus pastarajam daugiausiai pasiuliusiam\n//            payable(highestBidder).transfer(highestBid);\n//        }\n//\n//        highestBidder = msg.sender;\n//        highestBid = msg.value;\n//\n//        emit BidPlaced(msg.sender, msg.value);\n//    }\n//    \n//    //function finalizeAuction() external onlyAuctioneer {\n//    //    require(highestBidder != address(0), \"Aukcione niekas nesudalyvavo.\");\n//    //    payable(auctioneer).transfer(highestBid);\n//    //}\n//    \n//    function finalizeAuction() external{\n//    require(highestBidder != address(0), \"Aukcione niekas nesudalyvavo.\");\n//    payable(auctioneer).transfer(highestBid);\n//    }\n//}\n\npragma solidity >=0.5.17;\n\ncontract Counter {\n\n    // Public variable of type unsigned int to keep the number of counts\n    uint256 public count = 0;\n\n    // Function that increments our counter\n    function increment() public {\n        count += 1;\n    }\n\n    // Not necessary getter to get the count value\n    function getCount() public view returns (uint256) {\n        return count;\n    }\n\n}\n",
  "sourcePath": "/Users/dariu/Programavimas/Blockchain/my-contract/contracts/Aukcionas.sol",
  "compiler": {
    "name": "solc",
    "version": "0.8.21+commit.d9974bed.Emscripten.clang"
  },
  "schemaVersion": "3.4.16",
  "updatedAt": "2023-12-13T22:40:22.778Z",
  "devdoc": {
    "kind": "dev",
    "methods": {},
    "version": 1
  },
  "userdoc": {
    "kind": "user",
    "methods": {},
    "version": 1
  }
}